:1000000014C019C018C017C016C015C014C013C042
:1000100012C011C010C00FC00EC00DC00CC00BC06C
:100020000AC009C008C007C006C011241FBECFED1A
:10003000CDBF08D0D5C0E4CF8898909A80B3809582
:100040008170089587B38C6187BB18BAC0E1D0E195
:100050000F2EFCE1CF2EF02D0F2EF8E1DF2EF02D2C
:100060006894EE24E3F80F2EFCE0FF2EF02D04E060
:1000700014E11AC0E1DF813001F188B3837E8C2B5B
:1000800088BB2FE38DE093E0215080409040E1F762
:1000900000C00000C2982FE38DE093E02150804023
:1000A0009040E1F700C00000ECEFEC0FE93108F000
:1000B00084C0F0E0EE50FF4F0994BEDF8111FDCF08
:1000C0002FE38DE093E0215080409040E1F700C0A5
:1000D000000088B3C12FD1CFAFDF813071F6ACDF24
:1000E0008111FDCF2FE38DE093E0215080409040BF
:1000F000E1F700C0000088B3C02FBFCF9DDF813083
:1001000009F0BBCF99DF8111FDCF2FE38DE093E0A4
:10011000215080409040E1F700C0000088B3CF2D0F
:10012000ACCF8ADF813009F0A8CF86DF8111FDCF07
:100130002FE38DE093E0215080409040E1F700C034
:10014000000088B3CE2D99CF77DF813009F095CFAD
:1001500073DF8111FDCF2FE38DE093E021508040CC
:100160009040E1F700C0000088B3CD2D86CF64DF5A
:10017000813009F082CF60DF8111FDCF2FE38DE068
:1001800093E0215080409040E1F700C0000088B328
:10019000CC2D73CF51DF813009F06FCF4DDF81114E
:1001A000FDCF2FE38DE093E0215080409040E1F7B8
:1001B00000C0000088B3CD2F60CF3EDF813009F052
:1001C0005CCF3ADF8111FDCF2FE38DE093E021502A
:1001D00080409040E1F700C0000088B3CD2F4DCFA4
:1001E000F894FFCF8BCFE9CFE8CFE7CFADCFE5CF06
:1001F000E4CFE3CF96CFE1CFE0CFDFCF3BCFDDCF72
:10020000DCCFDBCF69CFD9CFD8CFD7CFB0CFD5CF49
:06021000D4CFD3CFBFCF15
:00000001FF
